{
  "contractName": "CashInMainchain",
  "abi": [
    {
      "constant": false,
      "inputs": [
        {
          "name": "_from",
          "type": "address"
        },
        {
          "name": "_value",
          "type": "uint256"
        }
      ],
      "name": "cashIn",
      "outputs": [
        {
          "name": "",
          "type": "address"
        }
      ],
      "payable": false,
      "stateMutability": "nonpayable",
      "type": "function"
    },
    {
      "constant": true,
      "inputs": [],
      "name": "tomoCommunityDeposit",
      "outputs": [
        {
          "name": "",
          "type": "address"
        }
      ],
      "payable": false,
      "stateMutability": "view",
      "type": "function"
    },
    {
      "inputs": [
        {
          "name": "_tomoCoinAddress",
          "type": "address"
        },
        {
          "name": "_tomoCommunityDeposit",
          "type": "address"
        }
      ],
      "payable": false,
      "stateMutability": "view",
      "type": "function",
      "constant": true,
      "name": "owner",
      "outputs": [
        {
          "name": "",
          "type": "address"
        }
      ]
    },
    {
      "payable": false,
      "stateMutability": "nonpayable",
      "type": "function",
      "constant": false,
      "inputs": [
        {
          "name": "newOwner",
          "type": "address"
        }
      ],
      "name": "transferOwnership",
      "outputs": []
    },
    {
      "anonymous": false,
      "inputs": [
        {
          "indexed": false,
          "name": "_from",
          "type": "address"
        },
        {
          "indexed": false,
          "name": "_value",
          "type": "uint256"
        }
      ],
      "name": "token",
      "type": "function",
      "constant": true,
      "outputs": [
        {
          "name": "",
          "type": "address"
        }
      ],
      "payable": false,
      "stateMutability": "view"
    },
    {
      "inputs": [
        {
          "name": "_tomoCoinAddress",
          "type": "address"
        },
        {
          "name": "_tomoCommunityDeposit",
          "type": "address"
        }
      ],
      "payable": false,
      "stateMutability": "nonpayable",
      "type": "constructor"
    },
    {
      "anonymous": false,
      "inputs": [
        {
          "indexed": false,
          "name": "_from",
          "type": "address"
        },
        {
          "indexed": false,
          "name": "_value",
          "type": "uint256"
        }
      ],
      "name": "CashIn",
      "type": "event"
    }
  ],
  "bytecode": "0x6060604052341561000f57600080fd5b60405160408061061883398101604052808051906020019091908051906020019091905050336000806101000a81548173ffffffffffffffffffffffffffffffffffffffff021916908373ffffffffffffffffffffffffffffffffffffffff16021790555081600160006101000a81548173ffffffffffffffffffffffffffffffffffffffff021916908373ffffffffffffffffffffffffffffffffffffffff16021790555080600260006101000a81548173ffffffffffffffffffffffffffffffffffffffff021916908373ffffffffffffffffffffffffffffffffffffffff1602179055505050610511806101076000396000f30060606040526004361061006d576000357c0100000000000000000000000000000000000000000000000000000000900463ffffffff1680633138809d1461007257806361d9f823146100b45780638da5cb5b14610109578063f2fde38b1461015e578063fc0c546a14610197575b600080fd5b341561007d57600080fd5b6100b2600480803573ffffffffffffffffffffffffffffffffffffffff169060200190919080359060200190919050506101ec565b005b34156100bf57600080fd5b6100c761039f565b604051808273ffffffffffffffffffffffffffffffffffffffff1673ffffffffffffffffffffffffffffffffffffffff16815260200191505060405180910390f35b341561011457600080fd5b61011c6103c5565b604051808273ffffffffffffffffffffffffffffffffffffffff1673ffffffffffffffffffffffffffffffffffffffff16815260200191505060405180910390f35b341561016957600080fd5b610195600480803573ffffffffffffffffffffffffffffffffffffffff169060200190919050506103ea565b005b34156101a257600080fd5b6101aa6104bf565b604051808273ffffffffffffffffffffffffffffffffffffffff1673ffffffffffffffffffffffffffffffffffffffff16815260200191505060405180910390f35b6000809054906101000a900473ffffffffffffffffffffffffffffffffffffffff1673ffffffffffffffffffffffffffffffffffffffff163373ffffffffffffffffffffffffffffffffffffffff1614151561024757600080fd5b600160009054906101000a900473ffffffffffffffffffffffffffffffffffffffff1673ffffffffffffffffffffffffffffffffffffffff166347e7ef2483836000604051602001526040518363ffffffff167c0100000000000000000000000000000000000000000000000000000000028152600401808373ffffffffffffffffffffffffffffffffffffffff1673ffffffffffffffffffffffffffffffffffffffff16815260200182815260200192505050602060405180830381600087803b151561031457600080fd5b6102c65a03f1151561032557600080fd5b50505060405180519050507fd5df9b37b38c0b1a9dbea0a7b8383cc78f9bd743db408c795083eb83e122a36d8282604051808373ffffffffffffffffffffffffffffffffffffffff1673ffffffffffffffffffffffffffffffffffffffff1681526020018281526020019250505060405180910390a15050565b600260009054906101000a900473ffffffffffffffffffffffffffffffffffffffff1681565b6000809054906101000a900473ffffffffffffffffffffffffffffffffffffffff1681565b6000809054906101000a900473ffffffffffffffffffffffffffffffffffffffff1673ffffffffffffffffffffffffffffffffffffffff163373ffffffffffffffffffffffffffffffffffffffff1614151561044557600080fd5b600073ffffffffffffffffffffffffffffffffffffffff168173ffffffffffffffffffffffffffffffffffffffff161415156104bc57806000806101000a81548173ffffffffffffffffffffffffffffffffffffffff021916908373ffffffffffffffffffffffffffffffffffffffff1602179055505b50565b600160009054906101000a900473ffffffffffffffffffffffffffffffffffffffff16815600a165627a7a72305820996097c5b1c92a5ab2f6c5ac04aed8a191e0f7a79dc4567d083bf4edc26057d30029",
  "source": "pragma solidity ^0.4.18;\nimport \"./TomoCoinMainchain.sol\";\n\ncontract CashInMainchain is Ownable {\n  TomoCoinMainchain public token;\n  address public tomoCommunityDeposit;\n\n  event CashIn( address _from, uint _value );\n\n  function CashInMainchain(\n    TomoCoinMainchain _tomoCoinAddress,\n    address _tomoCommunityDeposit\n  )\n  {\n    token = TomoCoinMainchain(_tomoCoinAddress);\n    tomoCommunityDeposit = _tomoCommunityDeposit;\n  }\n\n  function cashIn(address _from, uint256 _value) onlyOwner {\n    token.deposit(_from, _value);\n    CashIn(_from, _value);\n  }\n}\n\ncontract CashOutMainchain is Ownable {\n  TomoCoinMainchain public token;\n  address public tomoCommunityDeposit;\n\n\n  function CashOutMainchain(\n    TomoCoinMainchain _tomoCoinAddress,\n    address _tomoCommunityDeposit\n  )\n  {\n    token = TomoCoinMainchain(_tomoCoinAddress);\n    tomoCommunityDeposit = _tomoCommunityDeposit;\n  }\n\n  function cashOut(address _to, uint256 _value) onlyOwner {\n    token.transferFrom(tomoCommunityDeposit, _to, _value);\n  }\n}\n",
  "sourcePath": "/home/vagrant/projects/Tomo-CashProxy/contracts/TomoCoinProxyMainchain.sol",
  "compiler": {
    "name": "solc",
    "version": "0.4.18+commit.9cf6e910.Emscripten.clang"
  },
  "schemaVersion": "1.0.1",
  "updatedAt": "2017-12-14T02:59:21.306Z"
}