{
  "contractName": "CashInMainchain",
  "abi": [
    {
      "constant": false,
      "inputs": [
        {
          "name": "_user",
          "type": "address"
        },
        {
          "name": "_value",
          "type": "uint256"
        }
      ],
      "name": "cashIn",
      "outputs": [],
      "payable": false,
      "stateMutability": "nonpayable",
      "type": "function"
    },
    {
      "constant": true,
      "inputs": [],
      "name": "owner",
      "outputs": [
        {
          "name": "",
          "type": "address"
        }
      ],
      "payable": false,
      "stateMutability": "view",
      "type": "function"
    },
    {
      "constant": false,
      "inputs": [
        {
          "name": "newOwner",
          "type": "address"
        }
      ],
      "name": "transferOwnership",
      "outputs": [],
      "payable": false,
      "stateMutability": "nonpayable",
      "type": "function"
    },
    {
      "constant": true,
      "inputs": [],
      "name": "token",
      "outputs": [
        {
          "name": "",
          "type": "address"
        }
      ],
      "payable": false,
      "stateMutability": "view",
      "type": "function"
    },
    {
      "inputs": [
        {
          "name": "_tomoCoinAddress",
          "type": "address"
        }
      ],
      "payable": false,
      "stateMutability": "nonpayable",
      "type": "constructor"
    },
    {
      "anonymous": false,
      "inputs": [
        {
          "indexed": false,
          "name": "_user",
          "type": "address"
        },
        {
          "indexed": false,
          "name": "_value",
          "type": "uint256"
        }
      ],
      "name": "CashIn",
      "type": "event"
    }
  ],
  "bytecode": "0x6060604052341561000f57600080fd5b60405160208061054783398101604052808051906020019091905050336000806101000a81548173ffffffffffffffffffffffffffffffffffffffff021916908373ffffffffffffffffffffffffffffffffffffffff16021790555080600160006101000a81548173ffffffffffffffffffffffffffffffffffffffff021916908373ffffffffffffffffffffffffffffffffffffffff1602179055505061048b806100bc6000396000f300606060405260043610610062576000357c0100000000000000000000000000000000000000000000000000000000900463ffffffff1680633138809d146100675780638da5cb5b146100a9578063f2fde38b146100fe578063fc0c546a14610137575b600080fd5b341561007257600080fd5b6100a7600480803573ffffffffffffffffffffffffffffffffffffffff1690602001909190803590602001909190505061018c565b005b34156100b457600080fd5b6100bc61033f565b604051808273ffffffffffffffffffffffffffffffffffffffff1673ffffffffffffffffffffffffffffffffffffffff16815260200191505060405180910390f35b341561010957600080fd5b610135600480803573ffffffffffffffffffffffffffffffffffffffff16906020019091905050610364565b005b341561014257600080fd5b61014a610439565b604051808273ffffffffffffffffffffffffffffffffffffffff1673ffffffffffffffffffffffffffffffffffffffff16815260200191505060405180910390f35b6000809054906101000a900473ffffffffffffffffffffffffffffffffffffffff1673ffffffffffffffffffffffffffffffffffffffff163373ffffffffffffffffffffffffffffffffffffffff161415156101e757600080fd5b600160009054906101000a900473ffffffffffffffffffffffffffffffffffffffff1673ffffffffffffffffffffffffffffffffffffffff166347e7ef2483836000604051602001526040518363ffffffff167c0100000000000000000000000000000000000000000000000000000000028152600401808373ffffffffffffffffffffffffffffffffffffffff1673ffffffffffffffffffffffffffffffffffffffff16815260200182815260200192505050602060405180830381600087803b15156102b457600080fd5b6102c65a03f115156102c557600080fd5b50505060405180519050507fd5df9b37b38c0b1a9dbea0a7b8383cc78f9bd743db408c795083eb83e122a36d8282604051808373ffffffffffffffffffffffffffffffffffffffff1673ffffffffffffffffffffffffffffffffffffffff1681526020018281526020019250505060405180910390a15050565b6000809054906101000a900473ffffffffffffffffffffffffffffffffffffffff1681565b6000809054906101000a900473ffffffffffffffffffffffffffffffffffffffff1673ffffffffffffffffffffffffffffffffffffffff163373ffffffffffffffffffffffffffffffffffffffff161415156103bf57600080fd5b600073ffffffffffffffffffffffffffffffffffffffff168173ffffffffffffffffffffffffffffffffffffffff1614151561043657806000806101000a81548173ffffffffffffffffffffffffffffffffffffffff021916908373ffffffffffffffffffffffffffffffffffffffff1602179055505b50565b600160009054906101000a900473ffffffffffffffffffffffffffffffffffffffff16815600a165627a7a7230582061040fe691b129315da6fd7636831ae72778c2d8cb7f6f7bb1deb77c6ed1be1d0029",
  "source": "pragma solidity ^0.4.18;\nimport \"./TomoCoinMainchain.sol\";\n\ncontract CashInMainchain is Ownable {\n  TomoCoinMainchain public token;\n\n  event CashIn( address _user, uint _value );\n\n  function CashInMainchain(\n    TomoCoinMainchain _tomoCoinAddress\n  )\n  {\n    token = TomoCoinMainchain(_tomoCoinAddress);\n  }\n\n  function cashIn(address _user, uint256 _value) onlyOwner {\n    token.deposit(_user, _value);\n    CashIn(_user, _value);\n  }\n}\n\ncontract CashOutMainchain is Ownable {\n  TomoCoinMainchain public token;\n  address public tomoCommunityDeposit;\n\n  event CashOut( address _from, uint _value );\n\n  function CashOutMainchain(\n    TomoCoinMainchain _tomoCoinAddress,\n    address _tomoCommunityDeposit\n  )\n  {\n    token = TomoCoinMainchain(_tomoCoinAddress);\n    tomoCommunityDeposit = _tomoCommunityDeposit;\n  }\n\n  function cashOut(address _user, uint256 _value) onlyOwner {\n    token.transferFrom(tomoCommunityDeposit, _user, _value);\n    CashOut(_user, _value);\n  }\n}\n",
  "sourcePath": "/home/vagrant/projects/Tomo-CashProxy/contracts/TomoCoinProxyMainchain.sol",
  "compiler": {
    "name": "solc",
    "version": "0.4.18+commit.9cf6e910.Emscripten.clang"
  },
  "schemaVersion": "1.0.1",
  "updatedAt": "2017-12-15T10:36:25.829Z"
}