{
  "contractName": "CashInSidechain",
  "abi": [
    {
      "constant": false,
      "inputs": [
        {
          "name": "_to",
          "type": "address"
        },
        {
          "name": "_value",
          "type": "uint256"
        }
      ],
      "name": "cashIn",
      "outputs": [
        {
          "name": "",
          "type": "address"
        }
      ],
      "payable": false,
      "stateMutability": "nonpayable",
      "type": "function"
    },
    {
      "constant": true,
      "inputs": [],
      "name": "tomoCommunityDeposit",
      "outputs": [
        {
          "name": "",
          "type": "address"
        }
      ],
      "payable": false,
      "stateMutability": "view",
      "type": "function"
    },
    {
      "inputs": [
        {
          "name": "_tomoCoinAddress",
          "type": "address"
        },
        {
          "name": "_tomoCommunityDeposit",
          "type": "address"
        }
      ],
      "payable": false,
      "stateMutability": "view",
      "type": "function",
      "constant": true,
      "name": "owner",
      "outputs": [
        {
          "name": "",
          "type": "address"
        }
      ]
    },
    {
      "payable": false,
      "stateMutability": "nonpayable",
      "type": "function",
      "constant": false,
      "inputs": [
        {
          "name": "newOwner",
          "type": "address"
        }
      ],
      "name": "transferOwnership",
      "outputs": []
    },
    {
      "constant": true,
      "inputs": [],
      "name": "token",
      "outputs": [
        {
          "name": "",
          "type": "address"
        }
      ],
      "payable": false,
      "stateMutability": "view",
      "type": "function"
    },
    {
      "inputs": [
        {
          "name": "_tomoCoinAddress",
          "type": "address"
        },
        {
          "name": "_tomoCommunityDeposit",
          "type": "address"
        }
      ],
      "payable": false,
      "stateMutability": "nonpayable",
      "type": "constructor"
    }
  ],
  "bytecode": "0x6060604052341561000f57600080fd5b60405160408061060383398101604052808051906020019091908051906020019091905050336000806101000a81548173ffffffffffffffffffffffffffffffffffffffff021916908373ffffffffffffffffffffffffffffffffffffffff16021790555081600160006101000a81548173ffffffffffffffffffffffffffffffffffffffff021916908373ffffffffffffffffffffffffffffffffffffffff16021790555080600260006101000a81548173ffffffffffffffffffffffffffffffffffffffff021916908373ffffffffffffffffffffffffffffffffffffffff16021790555050506104fc806101076000396000f30060606040526004361061006d576000357c0100000000000000000000000000000000000000000000000000000000900463ffffffff1680633138809d1461007257806361d9f823146100b45780638da5cb5b14610109578063f2fde38b1461015e578063fc0c546a14610197575b600080fd5b341561007d57600080fd5b6100b2600480803573ffffffffffffffffffffffffffffffffffffffff169060200190919080359060200190919050506101ec565b005b34156100bf57600080fd5b6100c761038a565b604051808273ffffffffffffffffffffffffffffffffffffffff1673ffffffffffffffffffffffffffffffffffffffff16815260200191505060405180910390f35b341561011457600080fd5b61011c6103b0565b604051808273ffffffffffffffffffffffffffffffffffffffff1673ffffffffffffffffffffffffffffffffffffffff16815260200191505060405180910390f35b341561016957600080fd5b610195600480803573ffffffffffffffffffffffffffffffffffffffff169060200190919050506103d5565b005b34156101a257600080fd5b6101aa6104aa565b604051808273ffffffffffffffffffffffffffffffffffffffff1673ffffffffffffffffffffffffffffffffffffffff16815260200191505060405180910390f35b6000809054906101000a900473ffffffffffffffffffffffffffffffffffffffff1673ffffffffffffffffffffffffffffffffffffffff163373ffffffffffffffffffffffffffffffffffffffff1614151561024757600080fd5b600160009054906101000a900473ffffffffffffffffffffffffffffffffffffffff1673ffffffffffffffffffffffffffffffffffffffff166323b872dd600260009054906101000a900473ffffffffffffffffffffffffffffffffffffffff1684846000604051602001526040518463ffffffff167c0100000000000000000000000000000000000000000000000000000000028152600401808473ffffffffffffffffffffffffffffffffffffffff1673ffffffffffffffffffffffffffffffffffffffff1681526020018373ffffffffffffffffffffffffffffffffffffffff1673ffffffffffffffffffffffffffffffffffffffff1681526020018281526020019350505050602060405180830381600087803b151561036a57600080fd5b6102c65a03f1151561037b57600080fd5b50505060405180519050505050565b600260009054906101000a900473ffffffffffffffffffffffffffffffffffffffff1681565b6000809054906101000a900473ffffffffffffffffffffffffffffffffffffffff1681565b6000809054906101000a900473ffffffffffffffffffffffffffffffffffffffff1673ffffffffffffffffffffffffffffffffffffffff163373ffffffffffffffffffffffffffffffffffffffff1614151561043057600080fd5b600073ffffffffffffffffffffffffffffffffffffffff168173ffffffffffffffffffffffffffffffffffffffff161415156104a757806000806101000a81548173ffffffffffffffffffffffffffffffffffffffff021916908373ffffffffffffffffffffffffffffffffffffffff1602179055505b50565b600160009054906101000a900473ffffffffffffffffffffffffffffffffffffffff16815600a165627a7a72305820e32afd945e1aa57ca859bda3c8b47ce175e33cf9431e14447a291a440f62bf270029",
  "source": "pragma solidity ^0.4.18;\n\nimport \"./TomoCoinSidechain.sol\";\n\ncontract CashInSidechain is Ownable {\n  TomoCoinSidechain public token;\n  address public tomoCommunityDeposit;\n\n  function CashInSidechain(\n    TomoCoinSidechain _tomoCoinAddress,\n    address _tomoCommunityDeposit\n  )\n  {\n    token = TomoCoinSidechain(_tomoCoinAddress);\n    tomoCommunityDeposit = _tomoCommunityDeposit;\n  }\n\n  function cashIn(address _to, uint256 _value) onlyOwner {\n    token.transferFrom(tomoCommunityDeposit, _to, _value);\n  }\n}\n\ncontract CashOutSidechain is Ownable {\n  TomoCoinSidechain public token;\n  address public tomoCommunityDeposit;\n\n  event CashOut( address _from, uint _value );\n\n  function CashOutSidechain(\n    TomoCoinSidechain _tomoCoinAddress,\n    address _tomoCommunityDeposit\n  )\n  {\n    token = TomoCoinSidechain(_tomoCoinAddress);\n    tomoCommunityDeposit = _tomoCommunityDeposit;\n  }\n\n  function cashOut(address _from, uint256 _value) onlyOwner {\n    token.deposit(_from, _value);\n    CashOut(_from, _value);\n  }\n}\n",
  "sourcePath": "/home/vagrant/projects/Tomo-CashProxy/contracts/TomoCoinProxySidechain.sol",
  "compiler": {
    "name": "solc",
    "version": "0.4.18+commit.9cf6e910.Emscripten.clang"
  },
  "schemaVersion": "1.0.1",
  "updatedAt": "2017-12-13T03:24:02.452Z"
}