{
  "contractName": "Lib",
  "abi": [
    {
      "constant": true,
      "inputs": [
        {
          "name": "b",
          "type": "bytes"
        }
      ],
      "name": "bytesToAddress",
      "outputs": [
        {
          "name": "",
          "type": "address"
        }
      ],
      "payable": false,
      "stateMutability": "view",
      "type": "function"
    }
  ],
  "bytecode": "0x6060604052341561000f57600080fd5b61021b8061001e6000396000f300606060405260043610610041576000357c0100000000000000000000000000000000000000000000000000000000900463ffffffff16806342526e4e14610046575b600080fd5b610096600480803590602001908201803590602001908080601f016020809104026020016040519081016040528093929190818152602001838380828437820191505050505050919050506100d8565b604051808273ffffffffffffffffffffffffffffffffffffffff1673ffffffffffffffffffffffffffffffffffffffff16815260200191505060405180910390f35b60008060008060009250600091505b84518210156101e45784828151811015156100fe57fe5b9060200101517f010000000000000000000000000000000000000000000000000000000000000090047f0100000000000000000000000000000000000000000000000000000000000000027f01000000000000000000000000000000000000000000000000000000000000009004905060308110158015610180575060398111155b156101915760308103601084020192505b604181101580156101a35750605a8111155b156101b45760378103601084020192505b606181101580156101c65750607a8111155b156101d75760578103601084020192505b81806001019250506100e7565b8293505050509190505600a165627a7a723058206aca1161d2a30811f80e67440bcdb6128e1475950c26fdd6998c21c1bb82dece0029",
  "source": "pragma solidity ^0.4.18;\n\nlibrary Lib{\n  function bytesToAddress (bytes b) constant returns (address) {\n      uint result = 0;\n      for (uint i = 0; i < b.length; i++) {\n          uint c = uint(b[i]);\n          if (c >= 48 && c <= 57) {\n              result = result * 16 + (c - 48);\n          }\n          if(c >= 65 && c<= 90) {\n              result = result * 16 + (c - 55);\n          }\n          if(c >= 97 && c<= 122) {\n              result = result * 16 + (c - 87);\n          }\n      }\n      return address(result);\n  }\n}\n",
  "sourcePath": "/home/vagrant/projects/Tomo-CashProxy/contracts/Lib.sol",
  "compiler": {
    "name": "solc",
    "version": "0.4.18+commit.9cf6e910.Emscripten.clang"
  },
  "schemaVersion": "1.0.1",
  "updatedAt": "2017-12-11T08:54:27.428Z"
}