{
  "contractName": "RewardEngine",
  "abi": [
    {
      "constant": true,
      "inputs": [],
      "name": "decimals",
      "outputs": [
        {
          "name": "",
          "type": "uint256"
        }
      ],
      "payable": false,
      "stateMutability": "view",
      "type": "function"
    },
    {
      "constant": true,
      "inputs": [],
      "name": "tomoCommunityDeposit",
      "outputs": [
        {
          "name": "",
          "type": "address"
        }
      ],
      "payable": false,
      "stateMutability": "view",
      "type": "function"
    },
    {
      "constant": false,
      "inputs": [
        {
          "name": "userWallet",
          "type": "address"
        }
      ],
      "name": "reward",
      "outputs": [],
      "payable": false,
      "stateMutability": "nonpayable",
      "type": "function"
    },
    {
      "constant": true,
      "inputs": [],
      "name": "rewardCap",
      "outputs": [
        {
          "name": "",
          "type": "uint256"
        }
      ],
      "payable": false,
      "stateMutability": "view",
      "type": "function"
    },
    {
      "constant": true,
      "inputs": [],
      "name": "totalRewardCap",
      "outputs": [
        {
          "name": "",
          "type": "uint256"
        }
      ],
      "payable": false,
      "stateMutability": "view",
      "type": "function"
    },
    {
      "constant": true,
      "inputs": [],
      "name": "token",
      "outputs": [
        {
          "name": "",
          "type": "address"
        }
      ],
      "payable": false,
      "stateMutability": "view",
      "type": "function"
    },
    {
      "inputs": [
        {
          "name": "_tomoCoinAddress",
          "type": "address"
        },
        {
          "name": "_tomoCommunityDeposit",
          "type": "address"
        }
      ],
      "payable": false,
      "stateMutability": "nonpayable",
      "type": "constructor"
    }
  ],
  "bytecode": "0x6060604052341561000f57600080fd5b6040516040806104a783398101604052808051906020019091908051906020019091905050816000806101000a81548173ffffffffffffffffffffffffffffffffffffffff021916908373ffffffffffffffffffffffffffffffffffffffff16021790555080600160006101000a81548173ffffffffffffffffffffffffffffffffffffffff021916908373ffffffffffffffffffffffffffffffffffffffff1602179055506012600a0a6302625a000260028190555050506103d0806100d76000396000f300606060405260043610610078576000357c0100000000000000000000000000000000000000000000000000000000900463ffffffff168063313ce5671461007d57806361d9f823146100a65780636353586b146100fb5780639532e28714610134578063f258584c1461015d578063fc0c546a14610186575b600080fd5b341561008857600080fd5b6100906101db565b6040518082815260200191505060405180910390f35b34156100b157600080fd5b6100b96101e0565b604051808273ffffffffffffffffffffffffffffffffffffffff1673ffffffffffffffffffffffffffffffffffffffff16815260200191505060405180910390f35b341561010657600080fd5b610132600480803573ffffffffffffffffffffffffffffffffffffffff16906020019091905050610206565b005b341561013f57600080fd5b61014761036b565b6040518082815260200191505060405180910390f35b341561016857600080fd5b610170610371565b6040518082815260200191505060405180910390f35b341561019157600080fd5b61019961037f565b604051808273ffffffffffffffffffffffffffffffffffffffff1673ffffffffffffffffffffffffffffffffffffffff16815260200191505060405180910390f35b601281565b600160009054906101000a900473ffffffffffffffffffffffffffffffffffffffff1681565b60006298968060016002540281151561021b57fe5b04905080600254036002819055506000809054906101000a900473ffffffffffffffffffffffffffffffffffffffff1673ffffffffffffffffffffffffffffffffffffffff166323b872dd600160009054906101000a900473ffffffffffffffffffffffffffffffffffffffff1684846000604051602001526040518463ffffffff167c0100000000000000000000000000000000000000000000000000000000028152600401808473ffffffffffffffffffffffffffffffffffffffff1673ffffffffffffffffffffffffffffffffffffffff1681526020018373ffffffffffffffffffffffffffffffffffffffff1673ffffffffffffffffffffffffffffffffffffffff1681526020018281526020019350505050602060405180830381600087803b151561034b57600080fd5b6102c65a03f1151561035c57600080fd5b50505060405180519050505050565b60025481565b6012600a0a6302625a000281565b6000809054906101000a900473ffffffffffffffffffffffffffffffffffffffff16815600a165627a7a723058204bfcb2a8ef9d6630441c576aa3f257a6a7ae29c0a9b652db6f7834f1a83d51990029",
  "source": "pragma solidity ^0.4.18;\nimport \"./TomoCoinSidechain.sol\";\n\n\n// This is a simple example for rewardengine algorithm. It is only used for Proof of Coding\n\ncontract RewardEngine {\n  TomoCoinSidechain public token;\n  address public tomoCommunityDeposit;\n  uint256 public constant decimals = 18;\n\n  uint256 public constant totalRewardCap = 40000000 * 10**decimals; // 40% tomocoin\n  uint256 public rewardCap;\n\n  function RewardEngine(\n    TomoCoinSidechain _tomoCoinAddress,\n    address _tomoCommunityDeposit\n  )\n  {\n    token = TomoCoinSidechain(_tomoCoinAddress);\n    tomoCommunityDeposit = _tomoCommunityDeposit;\n    rewardCap = totalRewardCap;\n  }\n\n  function reward(\n    address userWallet\n  )\n  {\n    uint256 bonus = rewardCap * 1 / 10000000;\n    rewardCap = rewardCap - bonus;\n    token.transferFrom(tomoCommunityDeposit, userWallet, bonus);\n  }\n}\n",
  "sourcePath": "/home/vagrant/projects/Tomo-CashProxy/contracts/TomoRewardEngine.sol",
  "compiler": {
    "name": "solc",
    "version": "0.4.18+commit.9cf6e910.Emscripten.clang"
  },
  "schemaVersion": "1.0.1",
  "updatedAt": "2017-12-13T03:24:02.476Z"
}