{
  "contractName": "TomoContributorWhitelist",
  "abi": [
    {
      "constant": true,
      "inputs": [],
      "name": "owner",
      "outputs": [
        {
          "name": "",
          "type": "address"
        }
      ],
      "payable": false,
      "stateMutability": "view",
      "type": "function"
    },
    {
      "constant": true,
      "inputs": [
        {
          "name": "",
          "type": "address"
        }
      ],
      "name": "whitelist",
      "outputs": [
        {
          "name": "",
          "type": "uint256"
        }
      ],
      "payable": false,
      "stateMutability": "view",
      "type": "function"
    },
    {
      "constant": false,
      "inputs": [
        {
          "name": "_users",
          "type": "address[]"
        }
      ],
      "name": "listAddresses",
      "outputs": [],
      "payable": false,
      "stateMutability": "nonpayable",
      "type": "function"
    },
    {
      "constant": true,
      "inputs": [
        {
          "name": "_user",
          "type": "address"
        }
      ],
      "name": "check",
      "outputs": [
        {
          "name": "",
          "type": "bool"
        }
      ],
      "payable": false,
      "stateMutability": "view",
      "type": "function"
    },
    {
      "constant": false,
      "inputs": [
        {
          "name": "_user",
          "type": "address"
        }
      ],
      "name": "listAddress",
      "outputs": [],
      "payable": false,
      "stateMutability": "nonpayable",
      "type": "function"
    },
    {
      "constant": false,
      "inputs": [
        {
          "name": "newOwner",
          "type": "address"
        }
      ],
      "name": "transferOwnership",
      "outputs": [],
      "payable": false,
      "stateMutability": "nonpayable",
      "type": "function"
    },
    {
      "anonymous": false,
      "inputs": [
        {
          "indexed": false,
          "name": "_user",
          "type": "address"
        },
        {
          "indexed": false,
          "name": "_time",
          "type": "uint256"
        }
      ],
      "name": "ListAddress",
      "type": "constructor",
      "payable": false,
      "stateMutability": "nonpayable"
    },
    {
      "anonymous": false,
      "inputs": [
        {
          "indexed": false,
          "name": "_user",
          "type": "address"
        },
        {
          "indexed": false,
          "name": "_time",
          "type": "uint256"
        }
      ],
      "name": "ListAddress",
      "type": "event"
    }
  ],
  "bytecode": "0x6060604052341561000f57600080fd5b336000806101000a81548173ffffffffffffffffffffffffffffffffffffffff021916908373ffffffffffffffffffffffffffffffffffffffff1602179055506105748061005e6000396000f300606060405260043610610078576000357c0100000000000000000000000000000000000000000000000000000000900463ffffffff1680638da5cb5b1461007d5780639b19251a146100d2578063a9aa47ee1461011f578063c23697a814610179578063edb02398146101ca578063f2fde38b14610203575b600080fd5b341561008857600080fd5b61009061023c565b604051808273ffffffffffffffffffffffffffffffffffffffff1673ffffffffffffffffffffffffffffffffffffffff16815260200191505060405180910390f35b34156100dd57600080fd5b610109600480803573ffffffffffffffffffffffffffffffffffffffff16906020019091905050610261565b6040518082815260200191505060405180910390f35b341561012a57600080fd5b610177600480803590602001908201803590602001908080602002602001604051908101604052809392919081815260200183836020028082843782019150505050505091905050610279565b005b341561018457600080fd5b6101b0600480803573ffffffffffffffffffffffffffffffffffffffff16906020019091905050610315565b604051808215151515815260200191505060405180910390f35b34156101d557600080fd5b610201600480803573ffffffffffffffffffffffffffffffffffffffff16906020019091905050610366565b005b341561020e57600080fd5b61023a600480803573ffffffffffffffffffffffffffffffffffffffff16906020019091905050610473565b005b6000809054906101000a900473ffffffffffffffffffffffffffffffffffffffff1681565b60016020528060005260406000206000915090505481565b60008060009054906101000a900473ffffffffffffffffffffffffffffffffffffffff1673ffffffffffffffffffffffffffffffffffffffff163373ffffffffffffffffffffffffffffffffffffffff161415156102d657600080fd5b600090505b81518110156103115761030482828151811015156102f557fe5b90602001906020020151610366565b80806001019150506102db565b5050565b600080600160008473ffffffffffffffffffffffffffffffffffffffff1673ffffffffffffffffffffffffffffffffffffffff16815260200190815260200160002054905060008111915050919050565b6000809054906101000a900473ffffffffffffffffffffffffffffffffffffffff1673ffffffffffffffffffffffffffffffffffffffff163373ffffffffffffffffffffffffffffffffffffffff161415156103c157600080fd5b60018060008373ffffffffffffffffffffffffffffffffffffffff1673ffffffffffffffffffffffffffffffffffffffff168152602001908152602001600020819055507feb6fa25b8b2e7986441a8271ce7fcc2122ba6f8e2081a9544960bf7139fa92518142604051808373ffffffffffffffffffffffffffffffffffffffff1673ffffffffffffffffffffffffffffffffffffffff1681526020018281526020019250505060405180910390a150565b6000809054906101000a900473ffffffffffffffffffffffffffffffffffffffff1673ffffffffffffffffffffffffffffffffffffffff163373ffffffffffffffffffffffffffffffffffffffff161415156104ce57600080fd5b600073ffffffffffffffffffffffffffffffffffffffff168173ffffffffffffffffffffffffffffffffffffffff1614151561054557806000806101000a81548173ffffffffffffffffffffffffffffffffffffffff021916908373ffffffffffffffffffffffffffffffffffffffff1602179055505b505600a165627a7a72305820328ef9668c07a34e919f9d08e04f4ec71f538d1d29842e534ca1af71ca18cc9d0029",
  "source": "pragma solidity ^0.4.18;\n\n// ================= Ownable Contract start =============================\n/*\n * Ownable\n *\n * Base contract with an owner.\n * Provides onlyOwner modifier, which prevents function from running if it is called by anyone other than the owner.\n */\ncontract Ownable {\n  address public owner;\n\n  function Ownable() {\n    owner = msg.sender;\n  }\n\n  modifier onlyOwner() {\n    require(msg.sender == owner);\n    _;\n  }\n\n  function transferOwnership(address newOwner) onlyOwner {\n    if (newOwner != address(0)) {\n      owner = newOwner;\n    }\n  }\n}\n// ================= Ownable Contract end ===============================\n\n// ================= Safemath Contract start ============================\n/* taking ideas from FirstBlood token */\ncontract SafeMath {\n\n  function safeAdd(uint256 x, uint256 y) internal returns(uint256) {\n    uint256 z = x + y;\n    assert((z >= x) && (z >= y));\n    return z;\n  }\n\n  function safeSubtract(uint256 x, uint256 y) internal returns(uint256) {\n    assert(x >= y);\n    uint256 z = x - y;\n    return z;\n  }\n\n  function safeMult(uint256 x, uint256 y) internal returns(uint256) {\n    uint256 z = x * y;\n    assert((x == 0)||(z/x == y));\n    return z;\n  }\n}\n// ================= Safemath Contract end ==============================\n\n// ================= ERC20 Token Contract start =========================\n/*\n * ERC20 interface\n * see https://github.com/ethereum/EIPs/issues/20\n */\ncontract ERC20 {\n  uint public totalSupply;\n  function balanceOf(address who) constant returns (uint);\n  function allowance(address owner, address spender) constant returns (uint);\n\n  function transfer(address to, uint value) returns (bool ok);\n  function transferFrom(address from, address to, uint value) returns (bool ok);\n  function approve(address spender, uint value) returns (bool ok);\n  event Transfer(address indexed from, address indexed to, uint value);\n  event Approval(address indexed owner, address indexed spender, uint value);\n}\n// ================= ERC20 Token Contract end ===========================\n\n// ================= Standard Token Contract start ======================\ncontract StandardToken is ERC20, SafeMath {\n\n  /**\n  * @dev Fix for the ERC20 short address attack.\n   */\n  modifier onlyPayloadSize(uint size) {\n    require(msg.data.length >= size + 4) ;\n    _;\n  }\n\n  mapping(address => uint) balances;\n  mapping (address => mapping (address => uint)) allowed;\n\n  function transfer(address _to, uint _value) onlyPayloadSize(2 * 32)  returns (bool success){\n    balances[msg.sender] = safeSubtract(balances[msg.sender], _value);\n    balances[_to] = safeAdd(balances[_to], _value);\n    Transfer(msg.sender, _to, _value);\n    return true;\n  }\n\n  function transferFrom(address _from, address _to, uint _value) onlyPayloadSize(3 * 32) returns (bool success) {\n    var _allowance = allowed[_from][msg.sender];\n\n    balances[_to] = safeAdd(balances[_to], _value);\n    balances[_from] = safeSubtract(balances[_from], _value);\n    allowed[_from][msg.sender] = safeSubtract(_allowance, _value);\n    Transfer(_from, _to, _value);\n    return true;\n  }\n\n  function balanceOf(address _owner) constant returns (uint balance) {\n    return balances[_owner];\n  }\n\n  function approve(address _spender, uint _value) returns (bool success) {\n    allowed[msg.sender][_spender] = _value;\n    Approval(msg.sender, _spender, _value);\n    return true;\n  }\n\n  function allowance(address _owner, address _spender) constant returns (uint remaining) {\n    return allowed[_owner][_spender];\n  }\n}\n// ================= Standard Token Contract end ========================\n\n// ================= Pausable Token Contract start ======================\n/**\n * @title Pausable\n * @dev Base contract which allows children to implement an emergency stop mechanism.\n */\ncontract Pausable is Ownable {\n  event Pause();\n  event Unpause();\n\n  bool public paused = false;\n\n\n  /**\n  * @dev modifier to allow actions only when the contract IS paused\n  */\n  modifier whenNotPaused() {\n    require (!paused);\n    _;\n  }\n\n  /**\n  * @dev modifier to allow actions only when the contract IS NOT paused\n  */\n  modifier whenPaused {\n    require (paused) ;\n    _;\n  }\n\n  /**\n  * @dev called by the owner to pause, triggers stopped state\n  */\n  function pause() onlyOwner whenNotPaused returns (bool) {\n    paused = true;\n    Pause();\n    return true;\n  }\n\n  /**\n  * @dev called by the owner to unpause, returns to normal state\n  */\n  function unpause() onlyOwner whenPaused returns (bool) {\n    paused = false;\n    Unpause();\n    return true;\n  }\n}\n// ================= Pausable Token Contract end ========================\n\n// ================= Tomocoin  start =======================\ncontract TomoCoin is SafeMath, StandardToken, Pausable {\n  string public constant name = 'Tomo Coin';\n  string public constant symbol = 'TMC';\n  uint256 public constant decimals = 18;\n  address public icoSaleDeposit;\n  address public tokenSaleAddress;\n\n  uint256 public constant tomoSeed = 10000000 * 10**decimals;\n  uint256 public constant tomoPreSale = 10000000 * 10**decimals;\n  uint256 public constant tomoSale = 20000000 * 10**decimals;\n  uint256 public constant tomoCommunity = 40000000 * 10**decimals;\n  uint256 public constant tomoCompany = 20000000 * 10**decimals;\n\n  address public tomoSeedDeposit        = 0x216e05BD4AA93E93Cd95422dA8615a3D15AEcCc3;\n  address public tomoPreSaleDeposit     = 0x2D5628021B1F73247C25ED129D12a8DDEaDCC3E3;\n  address public tomoSaleDeposit        = 0x8D34a59A18D1A7B2A8A6A3dd1f5c46eB2311852b;\n  address public tomoCommunityDeposit   = 0x3E3Ae28fA4A2F400781Fb5D77a88AD451D99cF4d;\n  address public tomoCompanyDeposit   = 0x57C883DeE48334c8201aF1bB7296639Ab1806D96;\n\n  function TomoCoin() { \n    balances[tomoSeedDeposit] = tomoSeed;\n    balances[tomoPreSaleDeposit] = tomoPreSale;\n    balances[tomoSaleDeposit] = tomoSale;\n    balances[tomoCommunityDeposit] = tomoCommunity;\n    balances[tomoCompanyDeposit] = tomoCompany;\n\n    totalSupply = tomoSeed + tomoPreSale + tomoSale + tomoCommunity + tomoCompany;\n  }\n\n  function transfer(address _to, uint _value) whenNotPaused returns (bool success) {\n    return super.transfer(_to,_value);\n  }\n\n  function approve(address _spender, uint _value) whenNotPaused returns (bool success) {\n    return super.approve(_spender,_value);\n  }\n\n  function balanceOf(address _owner) constant returns (uint balance) {\n    return super.balanceOf(_owner);\n  }\n\n  function setTokenSaleAddress(address _tokenSaleAddress) onlyOwner {\n    if (_tokenSaleAddress != address(0)) {\n      tokenSaleAddress = _tokenSaleAddress;\n    }\n  }\n\n  function mint(address _recipient, uint _value) whenNotPaused returns (bool success) {\n      assert(_value > 0);\n      require(msg.sender == tokenSaleAddress);\n\n      balances[tomoSaleDeposit] = safeSubtract(balances[tomoSaleDeposit], _value);\n      balances[ _recipient ] = safeAdd(balances[_recipient], _value);\n\n      Transfer(tomoSaleDeposit, _recipient, _value);\n      return true;\n  }\n}\n// ================= Ico Token Contract end =======================\n\n\n// ================= Whitelist start ====================\ncontract TomoContributorWhitelist is Ownable {\n    mapping(address=>uint) public whitelist;\n\n    function TomoContributorWhitelist() {}\n\n    event ListAddress( address _user, uint _time );\n\n    function listAddress( address _user ) onlyOwner {\n        whitelist[_user] = 1;\n        ListAddress( _user, now );\n    }\n\n    function listAddresses( address[] _users ) onlyOwner {\n        for( uint i = 0 ; i < _users.length ; i++ ) {\n            listAddress( _users[i] );\n        }\n    }\n\n    function check( address _user ) constant returns(bool) {\n        uint cap = whitelist[_user];\n        return cap > 0;\n    }\n}\n// ================= Whitelist end ====================\n\n// ================= Actual Sale Contract Start ====================\ncontract TomoTokenSale is SafeMath, Pausable {\n  TomoCoin public token;\n  TomoContributorWhitelist whitelist;\n\n  address public ethFundDeposit = 0x334eE502e8bB4E2e5af547310F7B793A742f99A3;\n  address public tomoFundDeposit   = 0x8D34a59A18D1A7B2A8A6A3dd1f5c46eB2311852b;\n\n  uint256 public tokenCreationCap;\n  uint256 public totalSupply;\n  uint256 public fundingStartTime = 1504051200; // 2017-08-30\n  uint256 public fundingEndTime = 1514592000; // 2017-12-30\n  uint256 public minContribution = 0.05 ether;\n\n  bool public isFinalized;\n\n  event MintTomo(address from, address to, uint256 val);\n\n  function TomoTokenSale(\n    TomoCoin _tomoCoinAddress,\n    TomoContributorWhitelist _tomoContributorWhitelistAddress\n  )\n  {\n    token = TomoCoin(_tomoCoinAddress);\n    whitelist = TomoContributorWhitelist(_tomoContributorWhitelistAddress);\n\n    tokenCreationCap = token.balanceOf(tomoFundDeposit);\n    isFinalized = false;\n  }\n\n  function buy(address to, uint256 val) internal returns (bool success) {\n    MintTomo(tomoFundDeposit, to, val);\n    return token.mint(to, val);\n  }\n\n  function () payable {    \n    createTokens(msg.sender, msg.value);\n  }\n\n  function createTokens(address _beneficiary, uint256 _value) internal whenNotPaused {\n    require (now >= fundingStartTime);\n    require (now <= fundingEndTime);\n    require (_value >= minContribution);\n    require (!isFinalized);\n\n    uint256 tokenExchangeRate = getExchangeRate(totalSupply);\n    uint256 tokens = safeMult(_value, tokenExchangeRate);\n\n    require (whitelist.check(msg.sender));\n\n    uint256 checkedSupply = safeAdd(totalSupply, tokens);\n\n    if (tokenCreationCap < checkedSupply) {        \n      uint256 tokensToAllocate = safeSubtract(tokenCreationCap, totalSupply);\n      uint256 tokensToRefund   = safeSubtract(tokens, tokensToAllocate);\n      totalSupply = tokenCreationCap;\n      uint256 etherToRefund = tokensToRefund / tokenExchangeRate;\n\n      require(buy(_beneficiary, tokensToAllocate));\n      msg.sender.transfer(etherToRefund);\n      ethFundDeposit.transfer(this.balance);\n      return;\n    }\n\n    totalSupply = checkedSupply;\n\n    require(buy(_beneficiary, tokens)); \n    ethFundDeposit.transfer(this.balance);\n  }\n\n  function getExchangeRate(uint256 _checkedSupply) returns(uint) {\n    uint256 firstLevel = tokenCreationCap *  25 / 100;\n    uint256 secondLevel = tokenCreationCap *  50 / 100;\n    uint256 thirdLevel = tokenCreationCap *  75 / 100;\n\n    if (_checkedSupply >= firstLevel && _checkedSupply < secondLevel) {\n      return 4000;\n    }\n    if (_checkedSupply >= secondLevel && _checkedSupply < thirdLevel) {\n      return 3000;\n    }\n    if (_checkedSupply >= thirdLevel) {\n      return 2000;\n    }\n    return 6000;\n  }\n\n  /// @dev Ends the funding period and sends the ETH home\n  function finalize() external onlyOwner {\n    require (!isFinalized);\n    // move to operational\n    isFinalized = true;\n    ethFundDeposit.transfer(this.balance);\n  }\n}\n",
  "sourcePath": "/home/vagrant/projects/Tomo-CashProxy/contracts/TomoCoinSidechain.sol",
  "compiler": {
    "name": "solc",
    "version": "0.4.18+commit.9cf6e910.Emscripten.clang"
  },
  "schemaVersion": "1.0.1",
  "updatedAt": "2017-11-28T10:18:07.885Z"
}